{
  "address": "0xD147a515FEdad6D967F96b041eDB1F8c7B397895",
  "abi": [
    {
      "inputs": [
        {
          "internalType": "uint256",
          "name": "_cap",
          "type": "uint256"
        },
        {
          "internalType": "uint256",
          "name": "_blockReward",
          "type": "uint256"
        },
        {
          "internalType": "uint256",
          "name": "_initialSupply",
          "type": "uint256"
        }
      ],
      "stateMutability": "nonpayable",
      "type": "constructor"
    },
    {
      "inputs": [
        {
          "internalType": "uint256",
          "name": "increasedSupply",
          "type": "uint256"
        },
        {
          "internalType": "uint256",
          "name": "cap",
          "type": "uint256"
        }
      ],
      "name": "ERC20ExceededCap",
      "type": "error"
    },
    {
      "inputs": [
        {
          "internalType": "address",
          "name": "spender",
          "type": "address"
        },
        {
          "internalType": "uint256",
          "name": "allowance",
          "type": "uint256"
        },
        {
          "internalType": "uint256",
          "name": "needed",
          "type": "uint256"
        }
      ],
      "name": "ERC20InsufficientAllowance",
      "type": "error"
    },
    {
      "inputs": [
        {
          "internalType": "address",
          "name": "sender",
          "type": "address"
        },
        {
          "internalType": "uint256",
          "name": "balance",
          "type": "uint256"
        },
        {
          "internalType": "uint256",
          "name": "needed",
          "type": "uint256"
        }
      ],
      "name": "ERC20InsufficientBalance",
      "type": "error"
    },
    {
      "inputs": [
        {
          "internalType": "address",
          "name": "approver",
          "type": "address"
        }
      ],
      "name": "ERC20InvalidApprover",
      "type": "error"
    },
    {
      "inputs": [
        {
          "internalType": "uint256",
          "name": "cap",
          "type": "uint256"
        }
      ],
      "name": "ERC20InvalidCap",
      "type": "error"
    },
    {
      "inputs": [
        {
          "internalType": "address",
          "name": "receiver",
          "type": "address"
        }
      ],
      "name": "ERC20InvalidReceiver",
      "type": "error"
    },
    {
      "inputs": [
        {
          "internalType": "address",
          "name": "sender",
          "type": "address"
        }
      ],
      "name": "ERC20InvalidSender",
      "type": "error"
    },
    {
      "inputs": [
        {
          "internalType": "address",
          "name": "spender",
          "type": "address"
        }
      ],
      "name": "ERC20InvalidSpender",
      "type": "error"
    },
    {
      "anonymous": false,
      "inputs": [
        {
          "indexed": true,
          "internalType": "address",
          "name": "owner",
          "type": "address"
        },
        {
          "indexed": true,
          "internalType": "address",
          "name": "spender",
          "type": "address"
        },
        {
          "indexed": false,
          "internalType": "uint256",
          "name": "value",
          "type": "uint256"
        }
      ],
      "name": "Approval",
      "type": "event"
    },
    {
      "anonymous": false,
      "inputs": [
        {
          "indexed": true,
          "internalType": "address",
          "name": "claimer",
          "type": "address"
        },
        {
          "indexed": false,
          "internalType": "uint256",
          "name": "amount",
          "type": "uint256"
        }
      ],
      "name": "RewardClaimed",
      "type": "event"
    },
    {
      "anonymous": false,
      "inputs": [
        {
          "indexed": true,
          "internalType": "address",
          "name": "spender",
          "type": "address"
        },
        {
          "indexed": false,
          "internalType": "uint256",
          "name": "amount",
          "type": "uint256"
        }
      ],
      "name": "TokensSpent",
      "type": "event"
    },
    {
      "anonymous": false,
      "inputs": [
        {
          "indexed": true,
          "internalType": "address",
          "name": "from",
          "type": "address"
        },
        {
          "indexed": true,
          "internalType": "address",
          "name": "to",
          "type": "address"
        },
        {
          "indexed": false,
          "internalType": "uint256",
          "name": "value",
          "type": "uint256"
        }
      ],
      "name": "Transfer",
      "type": "event"
    },
    {
      "inputs": [
        {
          "internalType": "address",
          "name": "owner",
          "type": "address"
        },
        {
          "internalType": "address",
          "name": "spender",
          "type": "address"
        }
      ],
      "name": "allowance",
      "outputs": [
        {
          "internalType": "uint256",
          "name": "",
          "type": "uint256"
        }
      ],
      "stateMutability": "view",
      "type": "function"
    },
    {
      "inputs": [
        {
          "internalType": "address",
          "name": "spender",
          "type": "address"
        },
        {
          "internalType": "uint256",
          "name": "value",
          "type": "uint256"
        }
      ],
      "name": "approve",
      "outputs": [
        {
          "internalType": "bool",
          "name": "",
          "type": "bool"
        }
      ],
      "stateMutability": "nonpayable",
      "type": "function"
    },
    {
      "inputs": [
        {
          "internalType": "address",
          "name": "account",
          "type": "address"
        }
      ],
      "name": "balanceOf",
      "outputs": [
        {
          "internalType": "uint256",
          "name": "",
          "type": "uint256"
        }
      ],
      "stateMutability": "view",
      "type": "function"
    },
    {
      "inputs": [
        {
          "internalType": "uint256",
          "name": "value",
          "type": "uint256"
        }
      ],
      "name": "burn",
      "outputs": [],
      "stateMutability": "nonpayable",
      "type": "function"
    },
    {
      "inputs": [
        {
          "internalType": "address",
          "name": "account",
          "type": "address"
        },
        {
          "internalType": "uint256",
          "name": "value",
          "type": "uint256"
        }
      ],
      "name": "burnFrom",
      "outputs": [],
      "stateMutability": "nonpayable",
      "type": "function"
    },
    {
      "inputs": [],
      "name": "cap",
      "outputs": [
        {
          "internalType": "uint256",
          "name": "",
          "type": "uint256"
        }
      ],
      "stateMutability": "view",
      "type": "function"
    },
    {
      "inputs": [],
      "name": "claim",
      "outputs": [],
      "stateMutability": "nonpayable",
      "type": "function"
    },
    {
      "inputs": [
        {
          "internalType": "address",
          "name": "",
          "type": "address"
        }
      ],
      "name": "claimableRewards",
      "outputs": [
        {
          "internalType": "uint256",
          "name": "",
          "type": "uint256"
        }
      ],
      "stateMutability": "view",
      "type": "function"
    },
    {
      "inputs": [],
      "name": "decimals",
      "outputs": [
        {
          "internalType": "uint8",
          "name": "",
          "type": "uint8"
        }
      ],
      "stateMutability": "view",
      "type": "function"
    },
    {
      "inputs": [],
      "name": "getOwner",
      "outputs": [
        {
          "internalType": "address",
          "name": "",
          "type": "address"
        }
      ],
      "stateMutability": "view",
      "type": "function"
    },
    {
      "inputs": [
        {
          "internalType": "address",
          "name": "user",
          "type": "address"
        }
      ],
      "name": "getSpendableBalance",
      "outputs": [
        {
          "internalType": "uint256",
          "name": "",
          "type": "uint256"
        }
      ],
      "stateMutability": "view",
      "type": "function"
    },
    {
      "inputs": [
        {
          "internalType": "address",
          "name": "user",
          "type": "address"
        }
      ],
      "name": "getUserReward",
      "outputs": [
        {
          "internalType": "uint256",
          "name": "",
          "type": "uint256"
        }
      ],
      "stateMutability": "view",
      "type": "function"
    },
    {
      "inputs": [],
      "name": "getblockReward",
      "outputs": [
        {
          "internalType": "uint256",
          "name": "",
          "type": "uint256"
        }
      ],
      "stateMutability": "view",
      "type": "function"
    },
    {
      "inputs": [],
      "name": "name",
      "outputs": [
        {
          "internalType": "string",
          "name": "",
          "type": "string"
        }
      ],
      "stateMutability": "view",
      "type": "function"
    },
    {
      "inputs": [
        {
          "internalType": "uint256",
          "name": "_blockReward",
          "type": "uint256"
        }
      ],
      "name": "setBlockReward",
      "outputs": [],
      "stateMutability": "nonpayable",
      "type": "function"
    },
    {
      "inputs": [
        {
          "internalType": "address",
          "name": "user",
          "type": "address"
        },
        {
          "internalType": "uint256",
          "name": "amount",
          "type": "uint256"
        }
      ],
      "name": "setUserReward",
      "outputs": [],
      "stateMutability": "nonpayable",
      "type": "function"
    },
    {
      "inputs": [
        {
          "internalType": "uint256",
          "name": "amount",
          "type": "uint256"
        }
      ],
      "name": "spend",
      "outputs": [],
      "stateMutability": "nonpayable",
      "type": "function"
    },
    {
      "inputs": [],
      "name": "spendAll",
      "outputs": [],
      "stateMutability": "nonpayable",
      "type": "function"
    },
    {
      "inputs": [],
      "name": "symbol",
      "outputs": [
        {
          "internalType": "string",
          "name": "",
          "type": "string"
        }
      ],
      "stateMutability": "view",
      "type": "function"
    },
    {
      "inputs": [],
      "name": "totalSupply",
      "outputs": [
        {
          "internalType": "uint256",
          "name": "",
          "type": "uint256"
        }
      ],
      "stateMutability": "view",
      "type": "function"
    },
    {
      "inputs": [
        {
          "internalType": "address",
          "name": "to",
          "type": "address"
        },
        {
          "internalType": "uint256",
          "name": "value",
          "type": "uint256"
        }
      ],
      "name": "transfer",
      "outputs": [
        {
          "internalType": "bool",
          "name": "",
          "type": "bool"
        }
      ],
      "stateMutability": "nonpayable",
      "type": "function"
    },
    {
      "inputs": [
        {
          "internalType": "address",
          "name": "from",
          "type": "address"
        },
        {
          "internalType": "address",
          "name": "to",
          "type": "address"
        },
        {
          "internalType": "uint256",
          "name": "value",
          "type": "uint256"
        }
      ],
      "name": "transferFrom",
      "outputs": [
        {
          "internalType": "bool",
          "name": "",
          "type": "bool"
        }
      ],
      "stateMutability": "nonpayable",
      "type": "function"
    }
  ],
  "transactionHash": "0x2181dcad0ae62f0e3007ac4ff9ea7f1aacf069fa91e05d219210558e514d0604",
  "args": [
    "100000000",
    "50",
    "70000000"
  ],
  "numDeployments": 2,
  "solcInputHash": "046dda23dacd98c6ef74f1aec3f53ab5",
  "bytecode": "0x60a060405234801561001057600080fd5b50604051612a91380380612a9183398181016040528101906100329190610678565b6100406101dc60201b60201c565b600a61004c919061083a565b836100579190610885565b6040518060400160405280600d81526020017f57656c6c4e657374546f6b656e000000000000000000000000000000000000008152506040518060400160405280600381526020017f574e54000000000000000000000000000000000000000000000000000000000081525081600390816100d29190610b0d565b5080600490816100e29190610b0d565b5050506000810361012b5760006040517f392e1e270000000000000000000000000000000000000000000000000000000081526004016101229190610c1a565b60405180910390fd5b80608081815250505033600560006101000a81548173ffffffffffffffffffffffffffffffffffffffff021916908373ffffffffffffffffffffffffffffffffffffffff1602179055506101a9336101876101dc60201b60201c565b600a610193919061083a565b8361019e9190610885565b6101e560201b60201c565b6101b76101dc60201b60201c565b600a6101c3919061083a565b826101ce9190610885565b600681905550505050610d4f565b60006012905090565b600073ffffffffffffffffffffffffffffffffffffffff168273ffffffffffffffffffffffffffffffffffffffff16036102575760006040517fec442f0500000000000000000000000000000000000000000000000000000000815260040161024e9190610c76565b60405180910390fd5b6102696000838361026d60201b60201c565b5050565b600073ffffffffffffffffffffffffffffffffffffffff168373ffffffffffffffffffffffffffffffffffffffff161480156102d557504173ffffffffffffffffffffffffffffffffffffffff168273ffffffffffffffffffffffffffffffffffffffff1614155b801561030e5750600073ffffffffffffffffffffffffffffffffffffffff164173ffffffffffffffffffffffffffffffffffffffff1614155b156103225761032161033860201b60201c565b5b61033383838361034c60201b60201c565b505050565b61034a416006546101e560201b60201c565b565b61035d83838361040460201b60201c565b600073ffffffffffffffffffffffffffffffffffffffff168373ffffffffffffffffffffffffffffffffffffffff16036103ff5760006103a161062960201b60201c565b905060006103b361063360201b60201c565b9050818111156103fc5780826040517f9e79f8540000000000000000000000000000000000000000000000000000000081526004016103f3929190610ca0565b60405180910390fd5b50505b505050565b600073ffffffffffffffffffffffffffffffffffffffff168373ffffffffffffffffffffffffffffffffffffffff160361045657806002600082825461044a9190610cc9565b92505081905550610529565b60008060008573ffffffffffffffffffffffffffffffffffffffff1673ffffffffffffffffffffffffffffffffffffffff168152602001908152602001600020549050818110156104e2578381836040517fe450d38c0000000000000000000000000000000000000000000000000000000081526004016104d993929190610cfd565b60405180910390fd5b8181036000808673ffffffffffffffffffffffffffffffffffffffff1673ffffffffffffffffffffffffffffffffffffffff16815260200190815260200160002081905550505b600073ffffffffffffffffffffffffffffffffffffffff168273ffffffffffffffffffffffffffffffffffffffff160361057257806002600082825403925050819055506105bf565b806000808473ffffffffffffffffffffffffffffffffffffffff1673ffffffffffffffffffffffffffffffffffffffff168152602001908152602001600020600082825401925050819055505b8173ffffffffffffffffffffffffffffffffffffffff168373ffffffffffffffffffffffffffffffffffffffff167fddf252ad1be2c89b69c2b068fc378daa952ba7f163c4a11628f55a4df523b3ef8360405161061c9190610d34565b60405180910390a3505050565b6000608051905090565b6000600254905090565b600080fd5b6000819050919050565b61065581610642565b811461066057600080fd5b50565b6000815190506106728161064c565b92915050565b6000806000606084860312156106915761069061063d565b5b600061069f86828701610663565b93505060206106b086828701610663565b92505060406106c186828701610663565b9150509250925092565b7f4e487b7100000000000000000000000000000000000000000000000000000000600052601160045260246000fd5b60008160011c9050919050565b6000808291508390505b60018511156107515780860481111561072d5761072c6106cb565b5b600185161561073c5780820291505b808102905061074a856106fa565b9450610711565b94509492505050565b60008261076a5760019050610826565b816107785760009050610826565b816001811461078e5760028114610798576107c7565b6001915050610826565b60ff8411156107aa576107a96106cb565b5b8360020a9150848211156107c1576107c06106cb565b5b50610826565b5060208310610133831016604e8410600b84101617156107fc5782820a9050838111156107f7576107f66106cb565b5b610826565b6108098484846001610707565b925090508184048111156108205761081f6106cb565b5b81810290505b9392505050565b600060ff82169050919050565b600061084582610642565b91506108508361082d565b925061087d7fffffffffffffffffffffffffffffffffffffffffffffffffffffffffffffffff848461075a565b905092915050565b600061089082610642565b915061089b83610642565b92508282026108a981610642565b915082820484148315176108c0576108bf6106cb565b5b5092915050565b600081519050919050565b7f4e487b7100000000000000000000000000000000000000000000000000000000600052604160045260246000fd5b7f4e487b7100000000000000000000000000000000000000000000000000000000600052602260045260246000fd5b6000600282049050600182168061094857607f821691505b60208210810361095b5761095a610901565b5b50919050565b60008190508160005260206000209050919050565b60006020601f8301049050919050565b600082821b905092915050565b6000600883026109c37fffffffffffffffffffffffffffffffffffffffffffffffffffffffffffffffff82610986565b6109cd8683610986565b95508019841693508086168417925050509392505050565b6000819050919050565b6000610a0a610a05610a0084610642565b6109e5565b610642565b9050919050565b6000819050919050565b610a24836109ef565b610a38610a3082610a11565b848454610993565b825550505050565b600090565b610a4d610a40565b610a58818484610a1b565b505050565b5b81811015610a7c57610a71600082610a45565b600181019050610a5e565b5050565b601f821115610ac157610a9281610961565b610a9b84610976565b81016020851015610aaa578190505b610abe610ab685610976565b830182610a5d565b50505b505050565b600082821c905092915050565b6000610ae460001984600802610ac6565b1980831691505092915050565b6000610afd8383610ad3565b9150826002028217905092915050565b610b16826108c7565b67ffffffffffffffff811115610b2f57610b2e6108d2565b5b610b398254610930565b610b44828285610a80565b600060209050601f831160018114610b775760008415610b65578287015190505b610b6f8582610af1565b865550610bd7565b601f198416610b8586610961565b60005b82811015610bad57848901518255600182019150602085019450602081019050610b88565b86831015610bca5784890151610bc6601f891682610ad3565b8355505b6001600288020188555050505b505050505050565b6000819050919050565b6000610c04610bff610bfa84610bdf565b6109e5565b610642565b9050919050565b610c1481610be9565b82525050565b6000602082019050610c2f6000830184610c0b565b92915050565b600073ffffffffffffffffffffffffffffffffffffffff82169050919050565b6000610c6082610c35565b9050919050565b610c7081610c55565b82525050565b6000602082019050610c8b6000830184610c67565b92915050565b610c9a81610642565b82525050565b6000604082019050610cb56000830185610c91565b610cc26020830184610c91565b9392505050565b6000610cd482610642565b9150610cdf83610642565b9250828201905080821115610cf757610cf66106cb565b5b92915050565b6000606082019050610d126000830186610c67565b610d1f6020830185610c91565b610d2c6040830184610c91565b949350505050565b6000602082019050610d496000830184610c91565b92915050565b608051611d27610d6a60003960006107140152611d276000f3fe608060405234801561001057600080fd5b50600436106101425760003560e01c80634e71d92d116100b857806395d89b411161007c57806395d89b4114610351578063a9059cbb1461036f578063bcc45e601461039f578063c75ebb82146103a9578063dc01f60d146103d9578063dd62ed3e1461040957610142565b80634e71d92d146102c157806365ce8681146102cb57806370a08231146102e757806379cc679014610317578063893d20e81461033357610142565b80631dbf3bc71161010a5780631dbf3bc7146101ed57806323b872dd14610209578063313ce567146102395780633345906f14610257578063355274ea1461028757806342966c68146102a557610142565b806306fdde0314610147578063095ea7b3146101655780631474333b1461019557806318160ddd146101b35780631a18e707146101d1575b600080fd5b61014f610439565b60405161015c9190611523565b60405180910390f35b61017f600480360381019061017a91906115de565b6104cb565b60405161018c9190611639565b60405180910390f35b61019d6104ee565b6040516101aa9190611663565b60405180910390f35b6101bb6104f8565b6040516101c89190611663565b60405180910390f35b6101eb60048036038101906101e6919061167e565b610502565b005b6102076004803603810190610202919061167e565b6105ba565b005b610223600480360381019061021e91906116ab565b6106c6565b6040516102309190611639565b60405180910390f35b6102416106f5565b60405161024e919061171a565b60405180910390f35b610271600480360381019061026c9190611735565b6106fe565b60405161027e9190611663565b60405180910390f35b61028f610710565b60405161029c9190611663565b60405180910390f35b6102bf60048036038101906102ba919061167e565b610738565b005b6102c961074c565b005b6102e560048036038101906102e091906115de565b610896565b005b61030160048036038101906102fc9190611735565b610980565b60405161030e9190611663565b60405180910390f35b610331600480360381019061032c91906115de565b6109c8565b005b61033b6109e8565b6040516103489190611771565b60405180910390f35b610359610a12565b6040516103669190611523565b60405180910390f35b610389600480360381019061038491906115de565b610aa4565b6040516103969190611639565b60405180910390f35b6103a7610ac7565b005b6103c360048036038101906103be9190611735565b610b95565b6040516103d09190611663565b60405180910390f35b6103f360048036038101906103ee9190611735565b610bde565b6040516104009190611663565b60405180910390f35b610423600480360381019061041e919061178c565b610bf6565b6040516104309190611663565b60405180910390f35b606060038054610448906117fb565b80601f0160208091040260200160405190810160405280929190818152602001828054610474906117fb565b80156104c15780601f10610496576101008083540402835291602001916104c1565b820191906000526020600020905b8154815290600101906020018083116104a457829003601f168201915b5050505050905090565b6000806104d6610c7d565b90506104e3818585610c85565b600191505092915050565b6000600654905090565b6000600254905090565b600560009054906101000a900473ffffffffffffffffffffffffffffffffffffffff1673ffffffffffffffffffffffffffffffffffffffff163373ffffffffffffffffffffffffffffffffffffffff1614610592576040517f08c379a00000000000000000000000000000000000000000000000000000000081526004016105899061189e565b60405180910390fd5b61059a6106f5565b600a6105a69190611a20565b816105b19190611a6b565b60068190555050565b600081116105fd576040517f08c379a00000000000000000000000000000000000000000000000000000000081526004016105f490611af9565b60405180910390fd5b8061060733610980565b1015610648576040517f08c379a000000000000000000000000000000000000000000000000000000000815260040161063f90611b65565b60405180910390fd5b61067533600560009054906101000a900473ffffffffffffffffffffffffffffffffffffffff1683610c97565b3373ffffffffffffffffffffffffffffffffffffffff167f2efa3c8729bb4709645a357fcbdacbae23c038445bdb417a51d8c1dcc68be465826040516106bb9190611663565b60405180910390a250565b6000806106d1610c7d565b90506106de858285610d8b565b6106e9858585610c97565b60019150509392505050565b60006012905090565b600061070982610980565b9050919050565b60007f0000000000000000000000000000000000000000000000000000000000000000905090565b610749610743610c7d565b82610e20565b50565b6000600760003373ffffffffffffffffffffffffffffffffffffffff1673ffffffffffffffffffffffffffffffffffffffff168152602001908152602001600020549050600081116107d3576040517f08c379a00000000000000000000000000000000000000000000000000000000081526004016107ca90611bd1565b60405180910390fd5b6000600760003373ffffffffffffffffffffffffffffffffffffffff1673ffffffffffffffffffffffffffffffffffffffff16815260200190815260200160002081905550610845600560009054906101000a900473ffffffffffffffffffffffffffffffffffffffff163383610c97565b3373ffffffffffffffffffffffffffffffffffffffff167f106f923f993c2149d49b4255ff723acafa1f2d94393f561d3eda32ae348f72418260405161088b9190611663565b60405180910390a250565b600560009054906101000a900473ffffffffffffffffffffffffffffffffffffffff1673ffffffffffffffffffffffffffffffffffffffff163373ffffffffffffffffffffffffffffffffffffffff1614610926576040517f08c379a000000000000000000000000000000000000000000000000000000000815260040161091d9061189e565b60405180910390fd5b80600760008473ffffffffffffffffffffffffffffffffffffffff1673ffffffffffffffffffffffffffffffffffffffff16815260200190815260200160002060008282546109759190611bf1565b925050819055505050565b60008060008373ffffffffffffffffffffffffffffffffffffffff1673ffffffffffffffffffffffffffffffffffffffff168152602001908152602001600020549050919050565b6109da826109d4610c7d565b83610d8b565b6109e48282610e20565b5050565b6000600560009054906101000a900473ffffffffffffffffffffffffffffffffffffffff16905090565b606060048054610a21906117fb565b80601f0160208091040260200160405190810160405280929190818152602001828054610a4d906117fb565b8015610a9a5780601f10610a6f57610100808354040283529160200191610a9a565b820191906000526020600020905b815481529060010190602001808311610a7d57829003601f168201915b5050505050905090565b600080610aaf610c7d565b9050610abc818585610c97565b600191505092915050565b6000610ad233610980565b905060008111610b17576040517f08c379a0000000000000000000000000000000000000000000000000000000008152600401610b0e90611c71565b60405180910390fd5b610b4433600560009054906101000a900473ffffffffffffffffffffffffffffffffffffffff1683610c97565b3373ffffffffffffffffffffffffffffffffffffffff167f2efa3c8729bb4709645a357fcbdacbae23c038445bdb417a51d8c1dcc68be46582604051610b8a9190611663565b60405180910390a250565b6000600760008373ffffffffffffffffffffffffffffffffffffffff1673ffffffffffffffffffffffffffffffffffffffff168152602001908152602001600020549050919050565b60076020528060005260406000206000915090505481565b6000600160008473ffffffffffffffffffffffffffffffffffffffff1673ffffffffffffffffffffffffffffffffffffffff16815260200190815260200160002060008373ffffffffffffffffffffffffffffffffffffffff1673ffffffffffffffffffffffffffffffffffffffff16815260200190815260200160002054905092915050565b600033905090565b610c928383836001610ea2565b505050565b600073ffffffffffffffffffffffffffffffffffffffff168373ffffffffffffffffffffffffffffffffffffffff1603610d095760006040517f96c6fd1e000000000000000000000000000000000000000000000000000000008152600401610d009190611771565b60405180910390fd5b600073ffffffffffffffffffffffffffffffffffffffff168273ffffffffffffffffffffffffffffffffffffffff1603610d7b5760006040517fec442f05000000000000000000000000000000000000000000000000000000008152600401610d729190611771565b60405180910390fd5b610d86838383611079565b505050565b6000610d978484610bf6565b90507fffffffffffffffffffffffffffffffffffffffffffffffffffffffffffffffff811015610e1a5781811015610e0a578281836040517ffb8f41b2000000000000000000000000000000000000000000000000000000008152600401610e0193929190611c91565b60405180910390fd5b610e1984848484036000610ea2565b5b50505050565b600073ffffffffffffffffffffffffffffffffffffffff168273ffffffffffffffffffffffffffffffffffffffff1603610e925760006040517f96c6fd1e000000000000000000000000000000000000000000000000000000008152600401610e899190611771565b60405180910390fd5b610e9e82600083611079565b5050565b600073ffffffffffffffffffffffffffffffffffffffff168473ffffffffffffffffffffffffffffffffffffffff1603610f145760006040517fe602df05000000000000000000000000000000000000000000000000000000008152600401610f0b9190611771565b60405180910390fd5b600073ffffffffffffffffffffffffffffffffffffffff168373ffffffffffffffffffffffffffffffffffffffff1603610f865760006040517f94280d62000000000000000000000000000000000000000000000000000000008152600401610f7d9190611771565b60405180910390fd5b81600160008673ffffffffffffffffffffffffffffffffffffffff1673ffffffffffffffffffffffffffffffffffffffff16815260200190815260200160002060008573ffffffffffffffffffffffffffffffffffffffff1673ffffffffffffffffffffffffffffffffffffffff168152602001908152602001600020819055508015611073578273ffffffffffffffffffffffffffffffffffffffff168473ffffffffffffffffffffffffffffffffffffffff167f8c5be1e5ebec7d5bd14f71427d1e84f3dd0314c0f7b2291e5b200ac8c7c3b9258460405161106a9190611663565b60405180910390a35b50505050565b600073ffffffffffffffffffffffffffffffffffffffff168373ffffffffffffffffffffffffffffffffffffffff161480156110e157504173ffffffffffffffffffffffffffffffffffffffff168273ffffffffffffffffffffffffffffffffffffffff1614155b801561111a5750600073ffffffffffffffffffffffffffffffffffffffff164173ffffffffffffffffffffffffffffffffffffffff1614155b1561112857611127611138565b5b611133838383611146565b505050565b611144416006546111ec565b565b61115183838361126e565b600073ffffffffffffffffffffffffffffffffffffffff168373ffffffffffffffffffffffffffffffffffffffff16036111e757600061118f610710565b9050600061119b6104f8565b9050818111156111e45780826040517f9e79f8540000000000000000000000000000000000000000000000000000000081526004016111db929190611cc8565b60405180910390fd5b50505b505050565b600073ffffffffffffffffffffffffffffffffffffffff168273ffffffffffffffffffffffffffffffffffffffff160361125e5760006040517fec442f050000000000000000000000000000000000000000000000000000000081526004016112559190611771565b60405180910390fd5b61126a60008383611079565b5050565b600073ffffffffffffffffffffffffffffffffffffffff168373ffffffffffffffffffffffffffffffffffffffff16036112c05780600260008282546112b49190611bf1565b92505081905550611393565b60008060008573ffffffffffffffffffffffffffffffffffffffff1673ffffffffffffffffffffffffffffffffffffffff1681526020019081526020016000205490508181101561134c578381836040517fe450d38c00000000000000000000000000000000000000000000000000000000815260040161134393929190611c91565b60405180910390fd5b8181036000808673ffffffffffffffffffffffffffffffffffffffff1673ffffffffffffffffffffffffffffffffffffffff16815260200190815260200160002081905550505b600073ffffffffffffffffffffffffffffffffffffffff168273ffffffffffffffffffffffffffffffffffffffff16036113dc5780600260008282540392505081905550611429565b806000808473ffffffffffffffffffffffffffffffffffffffff1673ffffffffffffffffffffffffffffffffffffffff168152602001908152602001600020600082825401925050819055505b8173ffffffffffffffffffffffffffffffffffffffff168373ffffffffffffffffffffffffffffffffffffffff167fddf252ad1be2c89b69c2b068fc378daa952ba7f163c4a11628f55a4df523b3ef836040516114869190611663565b60405180910390a3505050565b600081519050919050565b600082825260208201905092915050565b60005b838110156114cd5780820151818401526020810190506114b2565b60008484015250505050565b6000601f19601f8301169050919050565b60006114f582611493565b6114ff818561149e565b935061150f8185602086016114af565b611518816114d9565b840191505092915050565b6000602082019050818103600083015261153d81846114ea565b905092915050565b600080fd5b600073ffffffffffffffffffffffffffffffffffffffff82169050919050565b60006115758261154a565b9050919050565b6115858161156a565b811461159057600080fd5b50565b6000813590506115a28161157c565b92915050565b6000819050919050565b6115bb816115a8565b81146115c657600080fd5b50565b6000813590506115d8816115b2565b92915050565b600080604083850312156115f5576115f4611545565b5b600061160385828601611593565b9250506020611614858286016115c9565b9150509250929050565b60008115159050919050565b6116338161161e565b82525050565b600060208201905061164e600083018461162a565b92915050565b61165d816115a8565b82525050565b60006020820190506116786000830184611654565b92915050565b60006020828403121561169457611693611545565b5b60006116a2848285016115c9565b91505092915050565b6000806000606084860312156116c4576116c3611545565b5b60006116d286828701611593565b93505060206116e386828701611593565b92505060406116f4868287016115c9565b9150509250925092565b600060ff82169050919050565b611714816116fe565b82525050565b600060208201905061172f600083018461170b565b92915050565b60006020828403121561174b5761174a611545565b5b600061175984828501611593565b91505092915050565b61176b8161156a565b82525050565b60006020820190506117866000830184611762565b92915050565b600080604083850312156117a3576117a2611545565b5b60006117b185828601611593565b92505060206117c285828601611593565b9150509250929050565b7f4e487b7100000000000000000000000000000000000000000000000000000000600052602260045260246000fd5b6000600282049050600182168061181357607f821691505b602082108103611826576118256117cc565b5b50919050565b7f4f6e6c7920746865206f776e65722063616e2063616c6c20746869732066756e60008201527f6374696f6e000000000000000000000000000000000000000000000000000000602082015250565b600061188860258361149e565b91506118938261182c565b604082019050919050565b600060208201905081810360008301526118b78161187b565b9050919050565b7f4e487b7100000000000000000000000000000000000000000000000000000000600052601160045260246000fd5b60008160011c9050919050565b6000808291508390505b6001851115611944578086048111156119205761191f6118be565b5b600185161561192f5780820291505b808102905061193d856118ed565b9450611904565b94509492505050565b60008261195d5760019050611a19565b8161196b5760009050611a19565b8160018114611981576002811461198b576119ba565b6001915050611a19565b60ff84111561199d5761199c6118be565b5b8360020a9150848211156119b4576119b36118be565b5b50611a19565b5060208310610133831016604e8410600b84101617156119ef5782820a9050838111156119ea576119e96118be565b5b611a19565b6119fc84848460016118fa565b92509050818404811115611a1357611a126118be565b5b81810290505b9392505050565b6000611a2b826115a8565b9150611a36836116fe565b9250611a637fffffffffffffffffffffffffffffffffffffffffffffffffffffffffffffffff848461194d565b905092915050565b6000611a76826115a8565b9150611a81836115a8565b9250828202611a8f816115a8565b91508282048414831517611aa657611aa56118be565b5b5092915050565b7f416d6f756e74206d7573742062652067726561746572207468616e2030000000600082015250565b6000611ae3601d8361149e565b9150611aee82611aad565b602082019050919050565b60006020820190508181036000830152611b1281611ad6565b9050919050565b7f496e73756666696369656e742062616c616e636520746f207370656e64000000600082015250565b6000611b4f601d8361149e565b9150611b5a82611b19565b602082019050919050565b60006020820190508181036000830152611b7e81611b42565b9050919050565b7f4e6f2072657761726420746f20636c61696d0000000000000000000000000000600082015250565b6000611bbb60128361149e565b9150611bc682611b85565b602082019050919050565b60006020820190508181036000830152611bea81611bae565b9050919050565b6000611bfc826115a8565b9150611c07836115a8565b9250828201905080821115611c1f57611c1e6118be565b5b92915050565b7f4e6f20746f6b656e7320746f207370656e640000000000000000000000000000600082015250565b6000611c5b60128361149e565b9150611c6682611c25565b602082019050919050565b60006020820190508181036000830152611c8a81611c4e565b9050919050565b6000606082019050611ca66000830186611762565b611cb36020830185611654565b611cc06040830184611654565b949350505050565b6000604082019050611cdd6000830185611654565b611cea6020830184611654565b939250505056fea2646970667358221220f04c9328ff19bff01ee04e6191ee8dfd187e22b1dd9471c586747369e614429564736f6c634300081c0033",
  "devdoc": {
    "errors": {
      "ERC20ExceededCap(uint256,uint256)": [
        {
          "details": "Total supply cap has been exceeded."
        }
      ],
      "ERC20InsufficientAllowance(address,uint256,uint256)": [
        {
          "details": "Indicates a failure with the `spender`s `allowance`. Used in transfers.",
          "params": {
            "allowance": "Amount of tokens a `spender` is allowed to operate with.",
            "needed": "Minimum amount required to perform a transfer.",
            "spender": "Address that may be allowed to operate on tokens without being their owner."
          }
        }
      ],
      "ERC20InsufficientBalance(address,uint256,uint256)": [
        {
          "details": "Indicates an error related to the current `balance` of a `sender`. Used in transfers.",
          "params": {
            "balance": "Current balance for the interacting account.",
            "needed": "Minimum amount required to perform a transfer.",
            "sender": "Address whose tokens are being transferred."
          }
        }
      ],
      "ERC20InvalidApprover(address)": [
        {
          "details": "Indicates a failure with the `approver` of a token to be approved. Used in approvals.",
          "params": {
            "approver": "Address initiating an approval operation."
          }
        }
      ],
      "ERC20InvalidCap(uint256)": [
        {
          "details": "The supplied cap is not a valid cap."
        }
      ],
      "ERC20InvalidReceiver(address)": [
        {
          "details": "Indicates a failure with the token `receiver`. Used in transfers.",
          "params": {
            "receiver": "Address to which tokens are being transferred."
          }
        }
      ],
      "ERC20InvalidSender(address)": [
        {
          "details": "Indicates a failure with the token `sender`. Used in transfers.",
          "params": {
            "sender": "Address whose tokens are being transferred."
          }
        }
      ],
      "ERC20InvalidSpender(address)": [
        {
          "details": "Indicates a failure with the `spender` to be approved. Used in approvals.",
          "params": {
            "spender": "Address that may be allowed to operate on tokens without being their owner."
          }
        }
      ]
    },
    "events": {
      "Approval(address,address,uint256)": {
        "details": "Emitted when the allowance of a `spender` for an `owner` is set by a call to {approve}. `value` is the new allowance."
      },
      "Transfer(address,address,uint256)": {
        "details": "Emitted when `value` tokens are moved from one account (`from`) to another (`to`). Note that `value` may be zero."
      }
    },
    "kind": "dev",
    "methods": {
      "allowance(address,address)": {
        "details": "Returns the remaining number of tokens that `spender` will be allowed to spend on behalf of `owner` through {transferFrom}. This is zero by default. This value changes when {approve} or {transferFrom} are called."
      },
      "approve(address,uint256)": {
        "details": "See {IERC20-approve}. NOTE: If `value` is the maximum `uint256`, the allowance is not updated on `transferFrom`. This is semantically equivalent to an infinite approval. Requirements: - `spender` cannot be the zero address."
      },
      "balanceOf(address)": {
        "details": "Returns the value of tokens owned by `account`."
      },
      "burn(uint256)": {
        "details": "Destroys a `value` amount of tokens from the caller. See {ERC20-_burn}."
      },
      "burnFrom(address,uint256)": {
        "details": "Destroys a `value` amount of tokens from `account`, deducting from the caller's allowance. See {ERC20-_burn} and {ERC20-allowance}. Requirements: - the caller must have allowance for ``accounts``'s tokens of at least `value`."
      },
      "cap()": {
        "details": "Returns the cap on the token's total supply."
      },
      "decimals()": {
        "details": "Returns the number of decimals used to get its user representation. For example, if `decimals` equals `2`, a balance of `505` tokens should be displayed to a user as `5.05` (`505 / 10 ** 2`). Tokens usually opt for a value of 18, imitating the relationship between Ether and Wei. This is the default value returned by this function, unless it's overridden. NOTE: This information is only used for _display_ purposes: it in no way affects any of the arithmetic of the contract, including {IERC20-balanceOf} and {IERC20-transfer}."
      },
      "name()": {
        "details": "Returns the name of the token."
      },
      "symbol()": {
        "details": "Returns the symbol of the token, usually a shorter version of the name."
      },
      "totalSupply()": {
        "details": "Returns the value of tokens in existence."
      },
      "transfer(address,uint256)": {
        "details": "See {IERC20-transfer}. Requirements: - `to` cannot be the zero address. - the caller must have a balance of at least `value`."
      },
      "transferFrom(address,address,uint256)": {
        "details": "See {IERC20-transferFrom}. Skips emitting an {Approval} event indicating an allowance update. This is not required by the ERC. See {xref-ERC20-_approve-address-address-uint256-bool-}[_approve]. NOTE: Does not update the allowance if the current allowance is the maximum `uint256`. Requirements: - `from` and `to` cannot be the zero address. - `from` must have a balance of at least `value`. - the caller must have allowance for ``from``'s tokens of at least `value`."
      }
    },
    "version": 1
  },
  "userdoc": {
    "kind": "user",
    "methods": {},
    "version": 1
  },
  "storageLayout": {
    "storage": [
      {
        "astId": 159,
        "contract": "contracts/WellNestToken.sol:WellNestToken",
        "label": "_balances",
        "offset": 0,
        "slot": "0",
        "type": "t_mapping(t_address,t_uint256)"
      },
      {
        "astId": 165,
        "contract": "contracts/WellNestToken.sol:WellNestToken",
        "label": "_allowances",
        "offset": 0,
        "slot": "1",
        "type": "t_mapping(t_address,t_mapping(t_address,t_uint256))"
      },
      {
        "astId": 167,
        "contract": "contracts/WellNestToken.sol:WellNestToken",
        "label": "_totalSupply",
        "offset": 0,
        "slot": "2",
        "type": "t_uint256"
      },
      {
        "astId": 169,
        "contract": "contracts/WellNestToken.sol:WellNestToken",
        "label": "_name",
        "offset": 0,
        "slot": "3",
        "type": "t_string_storage"
      },
      {
        "astId": 171,
        "contract": "contracts/WellNestToken.sol:WellNestToken",
        "label": "_symbol",
        "offset": 0,
        "slot": "4",
        "type": "t_string_storage"
      },
      {
        "astId": 944,
        "contract": "contracts/WellNestToken.sol:WellNestToken",
        "label": "s_owner",
        "offset": 0,
        "slot": "5",
        "type": "t_address_payable"
      },
      {
        "astId": 946,
        "contract": "contracts/WellNestToken.sol:WellNestToken",
        "label": "blockReward",
        "offset": 0,
        "slot": "6",
        "type": "t_uint256"
      },
      {
        "astId": 950,
        "contract": "contracts/WellNestToken.sol:WellNestToken",
        "label": "claimableRewards",
        "offset": 0,
        "slot": "7",
        "type": "t_mapping(t_address,t_uint256)"
      }
    ],
    "types": {
      "t_address": {
        "encoding": "inplace",
        "label": "address",
        "numberOfBytes": "20"
      },
      "t_address_payable": {
        "encoding": "inplace",
        "label": "address payable",
        "numberOfBytes": "20"
      },
      "t_mapping(t_address,t_mapping(t_address,t_uint256))": {
        "encoding": "mapping",
        "key": "t_address",
        "label": "mapping(address => mapping(address => uint256))",
        "numberOfBytes": "32",
        "value": "t_mapping(t_address,t_uint256)"
      },
      "t_mapping(t_address,t_uint256)": {
        "encoding": "mapping",
        "key": "t_address",
        "label": "mapping(address => uint256)",
        "numberOfBytes": "32",
        "value": "t_uint256"
      },
      "t_string_storage": {
        "encoding": "bytes",
        "label": "string",
        "numberOfBytes": "32"
      },
      "t_uint256": {
        "encoding": "inplace",
        "label": "uint256",
        "numberOfBytes": "32"
      }
    }
  }
}